:0400000038EF04F0E1
:1008000000010000000A00000064000000E803008E
:100810000010270000A086010040420F008096983B
:100820000000E1F50500CA9A3B256C752E25362E91
:05083000366C750000AC
:100836000F0EC16E000E936E9668816884B2FDD766
:10084600010E1C6E0ED01C50FF0A816E1C501C241B
:100856001C6E030E1A6EE80E196E53EC04F064EC6F
:1008660004F01C50D8B4E9D7EED7E40EF66E080EA5
:10087600F76E000EF86E00EE12F010EE07F00900AB
:10088600F5CFEEFFE550E150FAE100EE01F0110E72
:10089600EE6AE806FDE1000EF86E00011BEF04F0BB
:1008A60008D0100E1B6E940EE82EFED71B2EFCD71A
:1008B60000D01906D8A01A0619501A10D8B412007A
:1008C600F0D784B412004B0E816E030E1A6EE80E3A
:1008D600196E53EC04F084A4FED781681200303000
:0508E60030303030004D
:020000040020DA
:08000000FFFFFFFFFFFFFFFF00
:020000040030CA
:0E00000000051F1FFF8385FF0FC00FE00F409C
:00000001FF
