:04000000E9EF06F02E
:1008000000010000000A00000064000000E803008E
:100810000010270000A086010040420F008096983B
:100820000000E1F50500CA9A3B4641544543205378
:100830002E412E20323032312000202043524F4EA4
:100840004F4D4554524F202020200054454D504FCD
:10085000203D203020202020202053002020202058
:1008600020202020202020202020202000256C7502
:090870002E25362E366C750000B1
:10087A00290EF66E080EF76E20EE60F0100E0900D3
:10088A00F5CFDEFFE806FBE23A0EF66E080EF76ECB
:10089A0020EE71F0100E0900F5CFDEFFE806FBE24C
:1008AA004B0EF66E080EF76E20EE82F0100E09005F
:1008BA00F5CFDEFFE806FBE25C0EF66E080EF76E79
:1008CA0020EE93F0100E0900F5CFDEFFE806FBE2FA
:1008DA00000E0001A56F000EA46F0F0EC16E000E70
:1008EA00936E96682CEC05F0000E026E050E016EF2
:1008FA0028EC07F0010E046E010E2FEC06F0600ED4
:10090A00046E000E056E04EC07F0010E046E020E72
:10091A002FEC06F0710E046E000E056E04EC07F063
:10092A000C0E7BEC05F00B0E026EB80E016E28EC75
:10093A0007F0010E046E010E2FEC06F0820E046E13
:10094A00000E056E04EC07F0010E046E020E2FEC89
:10095A0006F0930E046E000E056E04EC07F0000E0E
:10096A000001A56F000EA46F1DD0030E026EE80EE3
:10097A00016E28EC07F0010E0001A4250001A46F06
:10098A00000E0001A5210001A56F090E046E010EDB
:10099A002FEC06F0A4C019F0A5C01AF0CBEC06F0B3
:1009AA0084B4E3D784B2C5D7FBD70AC00EF00BC014
:1009BA000FF00EC001F00FC002F00CC003F00DC022
:1009CA0004F060EC06F001C00EF002C00FF0084A15
:1009DA00092A0E500F10D8A4ECD708C0D9FF09C0B5
:1009EA00DAFF000EDF6E0806D8A009060AC001F079
:1009FA000BC002F00CC003F00DC004F0AAEC06F024
:100A0A000150106E0AC001F00BC002F00CC003F0D6
:100A1A000DC004F060EC06F001C00AF002C00BF051
:100A2A00090E106402D0070E1026300E102608C0D8
:100A3A00D9FF09C0DAFF10C0DFFF0806D8A00906EF
:100A4A000A500B10D8A4D2D7084A092A1200959442
:100A5A00959295909598959A959C959E8394839254
:100A6A008390839E839C838A8388EA0E046EC30ED6
:100A7A00E82EFED7042EFCD700F0838016EC07F090
:100A8A00839016EC07F04E0E046EEB0EE82EFED79E
:100A9A00042EFCD700F0838016EC07F0839016EC46
:100AAA0007F04E0E046EEB0EE82EFED7042EFCD78E
:100ABA0000F0838016EC07F0839016EC07F0839E13
:100ACA00839C838A8398838016EC07F0839016ECC4
:100ADA0007F0280E7BEC05F0060E7BEC05F00E0EF7
:100AEA007BEC05F0010E7BEC05F01200036E83949B
:100AFA008392839003A802D0838801D0839803AAA3
:100B0A0002D0838A01D0839A03AC02D0838C01D0AD
:100B1A00839C03AE02D0838E01D0839E838016EC21
:100B2A0007F0839016EC07F003A002D0838801D067
:100B3A00839803A202D0838A01D0839A03A402D0A5
:100B4A00838C01D0839C03A602D0838E01D0839E1E
:100B5A00838016EC07F0839016EC07F00304D8B4F0
:100B6A0008D0020E0318D8B404D0030E0318D8A470
:100B7A00120016EC07F01200036E839483828390AE
:100B8A0003A802D0838801D0839803AA02D0838A5B
:100B9A0001D0839A03AC02D0838C01D0839C03AE2C
:100BAA0002D0838E01D0839E838016EC07F0839057
:100BBA0016EC07F003A002D0838801D0839803A221
:100BCA0002D0838A01D0839A03A402D0838C01D0F5
:100BDA00839C03A602D0838E01D0839E838016EC69
:100BEA0007F0839016EC07F01200036E8394839249
:100BFA008390838E03A802D0838801D0839803AAA6
:100C0A0002D0838A01D0839A03AC02D0838C01D0AC
:100C1A00839C838016EC07F0839016EC07F003A000
:100C2A0002D0838801D0839803A202D0838A01D09C
:100C3A00839A03A402D0838C01D0839C03A602D09A
:100C4A00838E01D0839E838016EC07F0839016EC86
:100C5A0007F01200056E000E066E04061ED004C0D0
:100C6A0006F00650FAEC05F012000450400F066E2A
:100C7A000650FAEC05F012000450140F066E0650E6
:100C8A00FAEC05F012000450540F066E0650FAEC06
:100C9A0005F01200000E066E12000550010AD8B4C3
:100CAA00DED7030AD8B4E1D7010AD8B4E5D7070AD0
:100CBA00D8B4E9D7EFD7000E066E000E056E0350C2
:100CCA000410D8B41CD0010E076E04D0D890033695
:100CDA000436072A04AEFAD7D890053606360350EA
:100CEA00015C04500258D8A005D00350015E04509C
:100CFA00025A0580D89004320332072EEDD705C078
:100D0A0001F006C002F0120011C017F012C018F06C
:100D1A0014AE0CD011C0D9FF12C0DAFF2D0EDF6E4F
:100D2A00114A122A136C141ED8B0142A11C008F0E2
:100D3A0012C009F013C00AF014C00BF015C00CF071
:100D4A0016C00DF0DAEC04F0120003500410D8B407
:100D5A0018D0010E056E04D0D89003360436052A41
:100D6A0004AEFAD70350015C04500258D8A004D04C
:100D7A000350015E0450025AD89004320332052E01
:100D8A00F1D701C001F002C002F0120020EE33F0E8
:100D9A0010EE1BF0060EDBCFE3FFE806FCE21B0EAB
:100DAA00116E000E126E19C013F01AC014F0000E64
:100DBA00166E0A0E156E89EC06F01B0E046E000EF6
:100DCA00056E04EC07F01200720EF66E0E0EF76E48
:100DDA00000EF86E00EE33F010EE07F00900F5CFC2
:100DEA00EEFFE550E150FAE100EE22F0110EEE6A54
:100DFA00E806FDE1000EF86E00013DEF04F009D0AF
:100E0A0004C0D9FF05C0DAFFDF50C1EC05F0044A7F
:100E1A00052A04C0D9FF05C0DAFFDF50D8B4120092
:100E2A00EFD7000E016E1D0E016401D0120000F012
:100E3A00000E026E1D0E026401D003D000F0022AD9
:100E4A00F9D7012AF0D708D0100E036E940EE82EB7
:100E5A00FED7032EFCD700D00106D8A00206015007
:0F0E6A000210D8B41200F0D730303030303000E2
:020000040020DA
:08000000FFFFFFFFFFFFFFFF00
:020000040030CA
:0E00000000051F1FFF8385FF0FC00FE00F409C
:00000001FF
