:040000009AEF05F07E
:1008000000010000000A00000064000000E803008E
:100810000010270000A086010040420F008096983B
:100820000000E1F50500CA9A3B544941474F204278
:100830004152424F5341200052413A20373331391F
:1008400032333034322000256C752E25362E366C2E
:0308500075000030
:100854009594959295909598959A959C959E839448
:1008640083928390839E839C838A8388EA0E046E9A
:10087400C30EE82EFED7042EFCD700F08380C7EC0D
:1008840005F08390C7EC05F04E0E046EEB0EE82ED7
:10089400FED7042EFCD700F08380C7EC05F08390CC
:1008A400C7EC05F04E0E046EEB0EE82EFED7042EB8
:1008B400FCD700F08380C7EC05F08390C7EC05F00B
:1008C400839E839C838A83988380C7EC05F08390FE
:1008D400C7EC05F0280E79EC04F0060E79EC04F070
:1008E4000E0E79EC04F0010E79EC04F01200036EA4
:1008F40083948392839003A802D0838801D0839841
:1009040003AA02D0838A01D0839A03AC02D0838CD9
:1009140001D0839C03AE02D0838E01D0839E83805A
:10092400C7EC05F08390C7EC05F003A002D08388E0
:1009340001D0839803A202D0838A01D0839A03A4AE
:1009440002D0838C01D0839C03A602D0838E01D075
:10095400839E8380C7EC05F08390C7EC05F0030405
:10096400D8B408D0020E0318D8B404D0030E031868
:10097400D8A41200C7EC05F012000F0EC16E000ED1
:10098400936E9668290EF66E080EF76E20EE07F049
:100994000E0E0900F5CFDEFFE806FBE2380EF66E18
:1009A400080EF76E20EE16F00E0E0900F5CFDEFFEE
:1009B400E806FBE22AEC04F0000E026E0A0E016E59
:1009C400D9EC05F0010E046E010E69EC05F0070E7A
:1009D400046E000E056EB5EC05F0010E046E020EF9
:1009E40069EC05F0160E046E000E056EB5EC05F00C
:1009F400FFD7036E83948382839003A802D08388F5
:100A040001D0839803AA02D0838A01D0839A03ACCD
:100A140002D0838C01D0839C03AE02D0838E01D09C
:100A2400839E8380C7EC05F08390C7EC05F003A098
:100A340002D0838801D0839803A202D0838A01D094
:100A4400839A03A402D0838C01D0839C03A602D092
:100A5400838E01D0839E8380C7EC05F08390C7EC1E
:100A640005F01200036E839483928390838E03A80F
:100A740002D0838801D0839803AA02D0838A01D04C
:100A8400839A03AC02D0838C01D0839C8380C7EC0F
:100A940005F08390C7EC05F003A002D0838801D051
:100AA400839803A202D0838A01D0839A03A402D03C
:100AB400838C01D0839C03A602D0838E01D0839EB5
:100AC4008380C7EC05F08390C7EC05F01200056E37
:100AD400000E066E04061ED004C006F0065034EC68
:100AE40005F012000450400F066E065034EC05F079
:100AF40012000450140F066E065034EC05F0120078
:100B04000450540F066E065034EC05F01200000E2B
:100B1400066E12000550010AD8B4DED7030AD8B411
:100B2400E1D7010AD8B4E5D7070AD8B4E9D7EFD793
:100B3400D40EF66E0B0EF76E000EF86E00EE36F065
:100B440010EE07F00900F5CFEEFFE550E150FAE1B1
:100B540000EE25F0110EEE6AE806FDE1000EF86ED7
:100B64000001BFEF04F009D004C0D9FF05C0DAFFCB
:100B7400DF50FBEC04F0044A052A04C0D9FF05C089
:100B8400DAFFDF50D8B41200EFD7000E016E1D0E4D
:100B9400016401D0120000F0000E026E1D0E02640A
:100BA40001D003D000F0022AF9D7012AF0D708D0E7
:100BB400100E036E940EE82EFED7032EFCD700D041
:100BC4000106D8A0020601500210D8B41200F0D7D2
:070BD40030303030303000FA
:020000040020DA
:08000000FFFFFFFFFFFFFFFF00
:020000040030CA
:0E00000000051F1FFF8385FF0FC00FE00F409C
:00000001FF
